:020000040800F2
:10000000C8040020010100083F0F00083B0F000852
:100010003D0F0008490100089D1200080000000083
:10002000000000000000000000000000630F000856
:100030004B01000800000000610F0008650F000878
:100040001B0100081B0100081B0100081B01000820
:100050001B0100081B0100081B0100081B01000810
:100060001B0100081B0100081B0100081B01000800
:100070001B0100081B0100081B0100081B010008F0
:100080001B0100081B0100081B0100081B010008E0
:100090001B0100081B0100081B0100081B010008D0
:1000A0001B0100081B0100081B0100081B010008C0
:1000B0001B0100081B0100081B0100081B010008B0
:1000C0001B0100081B0100081B0100081B010008A0
:1000D0001B0100081B010008911200081B01000809
:1000E0001B0100081B0100081B010008DFF80CD0F1
:1000F00000F018F80048004731160008C804002036
:100100000648804706480047FEE7FEE7FEE7FEE7B1
:10011000FEE7FEE7FEE7FEE7FEE7FEE7C90F0008A1
:10012000ED000008064C074D06E0E06840F00103D2
:1001300094E8070098471034AC42F6D3FFF7DAFF93
:100140005017000870170008FEE7704731B500F03F
:10015000EDF8044600F0EAF80099001B8842F9D354
:1001600038BD00002DE9F84FDFF890A100220AF118
:10017000040B144601274FF00F090BF1040E00BFCA
:100180000B6807FA04F52B40AB4274D1DFF870C15D
:100190004E68A6EB0C0866452BD00DDC032E34D040
:1001A00005DC36B3012E19D0022E2FD11BE0112E03
:1001B00016D0122E2AD119E0B8F5881F19D006DC06
:1001C000B8F5803F15D0B8F5801F1FD111E0B8F504
:1001D000001F0ED0B8F5041F18D10AE0CA6815E058
:1001E000CA68121D12E0CA6808320FE0CA680C32F1
:1001F0000CE08A682AB1012A4FF0080203D0456159
:1002000004E0042202E0056100E00022FF2B01D897
:10021000064601E000F104064FEA840501D9A5F184
:100220002005D6F800C009FA05F82CEA080C02FAF5
:1002300005F54CEA050CC6F800C04D68ED0057D531
:10024000304DAE6946F00106AE61AD6924F003069B
:1002500005F0010500952C4D06EB050CDCF8085067
:10026000A6074FEA167809FA08F6B543274EB042BA
:1002700002D1002610E03BE0254EB04201D101261C
:100280000AE0244EB04201D1022605E0224EB042DF
:1002900001D1032600E0042606FA08F62E43CCF826
:1002A00008604D68DAF80060ED03554601D51E433D
:1002B00000E09E432E604D68DBF80060AD035D46B4
:1002C00001D51E4300E09E432E604D68DEF80060BD
:1002D000ED02754601D51E4300E09E432E604D6839
:1002E000AD020E4D2E6801D51E4300E09E432E60E8
:1002F000641C102CFFF444AFBDE8F88F00040140EB
:1003000000001110001002400000014000080140F0
:10031000000C014000100140001401400C04014099
:100320000AB1016170470904FBE700000148006859
:10033000704700000400002002480168491C016069
:100340007047000004000020074810B5016841F024
:1003500010010160032000F087F8002000F006F88B
:1003600000F016F8002010BD0020024010B5044631
:1003700000F050F94FF47A71B0FBF1F000F090FC0E
:1003800000222146501E00F04FF8002010BD000052
:100390001D4808B5816941F001018161806900F063
:1003A00001000090032000F05FF8002211466FF07A
:1003B0000B0000F039F8002211466FF00A0000F03F
:1003C00033F8002211466FF0090000F02DF80022EA
:1003D0001146501F00F028F800221146101F00F0AF
:1003E00023F800221146901E00F01EF8002211464C
:1003F000501E00F019F80548416821F0E06141F015
:100400000071416008BD0000001002400000014082
:1004100000F01F02012191404009800000F1E0201E
:10042000C0F8001170470000F0B40E4B1B680C467A
:10043000C3F30223C3F10705042D00D90425191DB8
:10044000072901D2002300E0DB1E012606FA05F190
:10045000491E214099409E40761E16403143F0BC13
:1004600000F06EBD0CED00E0064900F007020868E0
:100470004FF6FF03184040EA0220034A1043086089
:10048000704700000CED00E00000FA052DE9F04790
:10049000DFF8708105460E46D8F8000000F007002E
:1004A000B0420CD2D8F8001021F007013143C8F84F
:1004B0000010D8F8000000F00700B04277D128788B
:1004C000514C800705D56068A96820F0F00008430A
:1004D00060602878C00759D06968012001290DD0D3
:1004E000022929D05FF0020393FAA3F2B2FA82F252
:1004F00042F02002520904D0226803E04FF4003396
:10050000F2E7626A93FAA3F3B3FA83F303F01F03EB
:10051000984002424BD0606820F0030008436060BE
:10052000FFF704FF6968074641F2883001290DD0C2
:100530000229814617D025E04FF00073D4E700BFB1
:10054000FFF7F4FEC11B494501D918E081466068F8
:10055000C0F381000128F3D118E000BFFFF7E6FEE9
:10056000C11B49450BD86068C0F381000228F5D152
:100570000CE000BFFFF7DAFEC11B494502D903209A
:10058000BDE8F087606810F00C0FF3D1D8F80010C8
:10059000404601F00701B1420BD9016821F0070183
:1005A00031430160006800F00700B04201D0012033
:1005B000E6E72878400705D56068E96820F4E06040
:1005C000084360602878000706D56068296920F430
:1005D000605040EAC100606000F052F86168F022AB
:1005E00092FAA2F201F0F001B2FA82F2D140074A87
:1005F000515CC840064908600020FFF7B7FE0020A4
:10060000BEE700000020024000100240381700083A
:100610000000002001480068704700000000002032
:1006200008480949006849684FF4E06292FAA2F26A
:1006300001F4E061B2FA82F2D140044A515CC84050
:10064000704700000000002000100240481700081A
:1006500008480949006849684FF4605292FAA2F2CA
:1006600001F46051B2FA82F2D140044A515CC840B0
:1006700070470000000000200010024048170008EA
:1006800010B519A385B00FCB8DE80F001AA01B4B36
:10069000006804905A681A4802F00C0104291DD021
:1006A00008291BD14FF4701494FAA4F402F47011C9
:1006B000B4FA84F4E140D2031DF8011010D55A6851
:1006C0004FF4003393FAA3F302F40032B3FA83F346
:1006D000DA4004AB9A5CB0FBF2F0484305B010BDC1
:1006E00008484843FAE70000020304050607080922
:1006F0000A0B0C0D0E0F101001020000001002403A
:1007000000127A0000093D002DE9F84F04460078F8
:10071000F74DC0074FF0010625D068687704C0F395
:100720008100012807D06868C0F3810002281BD12E
:100730006868C00318D597FAA7F0B0FA80F040F0C7
:100740002000400901D0286800E0686A97FAA7F104
:10075000B1FA81F101F01F0106FA01F108425ED001
:10076000606800287CD05AE06068B0F5803F0BD00C
:1007700010B1B0F5A02F11D0286820F48030286087
:10078000286820F4802002E0286840F48030286047
:10079000606828B3FFF7CAFD80460BE0286840F484
:1007A00080202860F0E700BFFFF7C0FDA0EB080045
:1007B000642871D897FAA7F0B0FA80F040F02000D2
:1007C000400901D0286800E0686A97FAA7F1B1FAF9
:1007D00081F101F01F0106FA01F10842E4D01EE0A8
:1007E000FFF7A4FD804605E0FFF7A0FDA0EB0800A1
:1007F0006428DED897FAA7F0B0FA80F040F0200025
:10080000400901D0286800E0686A97FAA7F1B1FAB8
:1008100081F101F01F0106FA01F10842E4D12078CC
:10082000DFF8D08280074FF000094FF002075BD558
:1008300068684FF0F80B10F00C0F07D06868C0F331
:10084000810002281CD16868C00319D497FAA7F068
:10085000B0FA80F040F02000400902D0286801E0A2
:100860008BE0686A97FAA7F1B1FA81F101F01F01F4
:1008700006FA01F108422CD0206901287DD128E038
:10088000206990B396FAA6F0B0FA80F048F820609C
:10089000FFF74CFD824607E011E100BFFFF746FD80
:1008A000A0EB0A00022884D897FAA7F0B0FA80F0EB
:1008B00040F02000400901D0286800E0686A97FAFB
:1008C000A7F1B1FA81F101F01F0106FA01F1084226
:1008D000E4D028689BFAABF26169B2FA82F220F0A8
:1008E000F80091400843286025E0FFE796FAA6F15A
:1008F000B1FA81F148F82190FFF718FD824605E032
:10090000FFF714FDA0EB0A000228CCD897FAA7F055
:10091000B0FA80F040F02000400901D0286800E0E3
:10092000686A97FAA7F1B1FA81F101F01F0106FA9E
:1009300001F10842E4D1207800076ED5A069B8B370
:1009400096FAA6F0B0FA80F008EB8000C0F8806458
:10095000FFF7ECFC824605E0FFF7E8FCA0EB0A009D
:100960000228A0D897FAA7F0B0FA80F040F0600013
:10097000B6EB501F02D128680CE062E197FAA7F0AD
:10098000B0FA80F040F06000B7EB501F01D1286A48
:1009900000E0686A97FAA7F1B1FA81F101F01F014E
:1009A00006FA01F21042D7D00120FFF7CFFB34E066
:1009B000FFE796FAA6F1B1FA81F108EB8101C1F8DF
:1009C0008094FFF7B3FC824606E000BFFFF7AEFC61
:1009D000A0EB0A00022872D897FAA7F0B0FA80F0CC
:1009E00040F06000B6EB501F01D128680BE097FA89
:1009F000A7F0B0FA80F040F06000B7EB501F01D1D3
:100A0000286A00E0686A97FAA7F1B1FA81F101F06B
:100A10001F0106FA01F21042D8D12078400765D5AF
:100A2000E86940F08050E861E869DFF8CCB000F098
:100A300080500090DBF8001041F48071CBF800107A
:100A4000FFF774FC824605E0FFF770FCA0EB0A009C
:100A5000642834D8DBF80000C005F5D5E06801282B
:100A60000AD008B1052813D0286A20F001002862B6
:100A7000286A20F0040002E0286A40F001002862A1
:100A8000E06841F2883B90B3FFF750FC82460BE0F0
:100A9000286A40F004002862EEE700BFFFF746FC3A
:100AA000A0EB0A0159450AD897FAA7F0B0FA80F0EE
:100AB00040F04000B6EB501F02D128680CE0A3E0E4
:100AC00097FAA7F0B0FA80F040F04000B7EB501F63
:100AD00001D1286A00E0686A97FAA7F1B1FA81F1BA
:100AE00001F01F0206FA02F10842D7D031E005E01A
:100AF000001002400000424200700040FFF716FC68
:100B0000824605E0FFF712FCA0EB0A0159457BD8AD
:100B100097FAA7F0B0FA80F040F04000B6EB501F13
:100B200001D128680BE097FAA7F0B0FA80F040F006
:100B30004000B7EB501F01D1286A00E0686A97FABD
:100B4000A7F1B1FA81F101F01F0206FA02F10842A1
:100B5000D8D1E06980B36968C1F38101022970D0FE
:100B60004FF080714F000228484609D091FAA1F158
:100B7000B1FA81F148F82100FFF7D8FB044669E09B
:100B80008A4691FAA1F1B1FA81F1C14648F82100F3
:100B9000FFF7CCFB804605E0FFF7C8FBA0EB0800A1
:100BA000022854D897FAA7F0B0FA80F040F020005D
:100BB000400902D0286801E061E0686A97FAA7F16D
:100BC000B1FA81F101F01F0106FA01F10842E3D107
:100BD000206AB0F5803F05D16868A16820F4003034
:100BE00008436860D4E908010843696821F4741176
:100BF000084368609AFAAAF0B0FA80F049F82060D9
:100C0000FFF794FB044606E021E000BFFFF78EFBF0
:100C1000001B02281BD897FAA7F0B0FA80F040F02A
:100C20002000400901D0286800E0686A97FAA7F11F
:100C3000B1FA81F101F01F0106FA01F10842E5D095
:100C40001DE01EE0FFF772FB001B022802D9032003
:100C5000BDE8F88F97FAA7F0B0FA80F040F02000D6
:100C6000400901D0286800E0686A97FAA7F1B1FA54
:100C700081F101F01F0106FA01F10842E2D10020E2
:100C8000E6E70120E4E74FF0E0210428086903D0FB
:100C900020F004000861704740F00400FAE7704754
:100CA00010B5401EB0F1807F01D3012010BD4FF080
:100CB000E02460610F21601700F042F90020A0617C
:100CC00007202061002010BD10B5FFF7E8FF10BD20
:100CD0007047000038B5044600680168C26811F02A
:100CE000010F02F4807204D01AB1E16B41F00101EE
:100CF000E1630168C1F34002416901F0010122B1E1
:100D000019B1E26B42F00402E2630268C2F38002AE
:100D100022B119B1E26B42F00202E2630268C2F34F
:100D2000C00222B119B1E16B41F00801E163016831
:100D3000C068C1F3401100F0200019B110B1204685
:100D400000F066F920680168C068C1F3C01100F0C6
:100D5000800019B110B1204600F066FA21680868D9
:100D6000CA68C0F3801002F04002012570B16AB178
:100D7000CA68204622F04002CA6094F8391032292D
:100D800011D080F8395000BF00F0D6F8E06B002891
:100D900008D0206801684068009084F839502046E7
:100DA000FFF796FF38BD222180F83910ECE770B5C7
:100DB000040004D094F83900002510B106E00120A9
:100DC00070BD84F83850204600F020F8022084F8E6
:100DD00039002068C16821F40051C160204600F04C
:100DE0006BF92068016921F4904101612068416933
:100DF00021F02A0141612068C16841F40051C160BD
:100E0000E563012084F83900002070BD10B500684A
:100E1000154986B0884224D11448C16941F4003193
:100E2000C161C069124C00F40030049004200090AD
:100E3000022001900320039069462046FFF792F9B3
:100E400000210820CDE90001029169462046FFF704
:100E500089F9002211462620FFF7E6FA2620FFF73F
:100E6000D7FA06B010BD0000004400400010024058
:100E70000008014090F83930012B01D0122B2CD101
:100E800039B332B390F83830012B26D0012380F8E3
:100E9000383081628285C2850021C16390F8392093
:100EA000122A18D05FF0220280F8392080F838101A
:100EB0000168CA6842F48072CA6001684A6942F0F7
:100EC00001024A610068C16841F02001C160002050
:100ED0007047012070473222E6E702207047000089
:100EE00030B40068114988421ED1114A114C0023C8
:100EF000517829B900202354401CC0B26428FAD983
:100F00000B48801C0078402803D06054491C517065
:100F100002E0537001201070054906480122891C27
:100F200030BC4038FFF7A6BF30BC704700440040DB
:100F3000080000204C0000207047FEE7FEE77047E5
:100F40000907090E002806DA00F00F0000F1E02082
:100F500080F8141D704700F1E02080F800147047FD
:100F60007047704710B5FFF7E7F9BDE81040FFF78D
:100F7000ABBE30B58FB001252804CDE90050002468
:100F800007946846FFF7C0FB00B1FEE70F200A9008
:100F9000CDE90B540D9400210AA80E94FFF776FAC0
:100FA00000B1FEE7FFF736FB4FF47A71B0FBF1F0CA
:100FB000FFF776FE0420FFF766FE00221146501E62
:100FC000FFF732FA0FB030BD0D48016841F0010162
:100FD000016041680B4A1140416001680A4A1140B2
:100FE0000160016821F480210160416821F4FE0163
:100FF00041604FF41F0181600449C00308607047DD
:10100000001002400000FFF8FFFFF6FE08ED00E0D0
:1010100010B590F83910222903D0322901D00220CE
:1010200010BD8168B1F5805F11D0016900290168A8
:101030001FD0496801F07F03816A4A1C82620B70ED
:10104000C18D491E0904090CC18518D030E0026920
:10105000816A002A0268526805D0D2B20A80816A89
:10106000491C8162ECE7C2F308020A80816A891C8C
:10107000F7E74A68816A4B1C83620A70E0E70168FF
:10108000CA6822F02002CA6090F83910322911D0C3
:101090000168CA6822F48072CA6001684A6922F055
:1010A00001024A615FF0010180F83910FFF718FF73
:1010B000002010BD1221F7E72DE9F0410446006839
:1010C0000169E26821F44051114301612169A0687E
:1010D0000843616908432168CA6841F20C639A4376
:1010E0000243CA6020684169A26921F4407111433A
:1010F00041614C4920686425322688423CD1FFF783
:10110000A7FA00EBC00101EB001061688900B0FB99
:10111000F1F7FFF79DFA00EBC00101EB00106168E9
:10112000B0468900B0FBF1F0B0FBF5F06FF01801AC
:10113000484307EB800106EB0110B0FBF5F000F02F
:10114000F006FFF785FA00EBC00101EB00106168C3
:101150008900B0FBF1F0B0FBF5F006EB0016FFF7ED
:1011600077FA00EBC00101EB001061688900B0FB69
:10117000F1F7FFF76DFA3BE0FFF752FA00EBC00121
:1011800001EB001061688900B0FBF1F7FFF748FA46
:1011900000EBC00101EB00106168B0468900B0FBB4
:1011A000F1F0B0FBF5F06FF01801484307EB800158
:1011B00006EB0110B0FBF5F000F0F006FFF730FA97
:1011C00000EBC00101EB001061688900B0FBF1F099
:1011D000B0FBF5F006EB0016FFF722FA00EBC001BA
:1011E00001EB001061688900B0FBF1F7FFF718FA16
:1011F00000EBC00101EB001061688900B0FBF1F069
:10120000B0FBF5F06FF01801484307EB800108EBE5
:101210000110B0FBF5F0216800F00F003044886049
:10122000BDE8F0810038014090F83910122903D050
:10123000322901D0022070478168B1F5805F016AD0
:101240000BD04A1C0262026809785160C18C491EA9
:101250000904090CC1840ED017E009880268C1F3A3
:101260000801516001690029016A02D0491C01622C
:10127000ECE7891CFBE70168CA6822F08002CA60BB
:101280000068C16841F04001C16000207047000063
:101290000148FFF71FBD00000C000020FEE7000022
:1012A0000FB4084B10B504A902AA039800F01BF86C
:1012B000044602A9002000F081F8204610BC5DF829
:1012C00014FB0000BD13000802E008C8121F08C18B
:1012D000002AFAD170477047002001E001C1121FB7
:1012E000002AFBD170472DE9F84F9946924688466F
:1012F0000546002706E025280AD051464A46904771
:101300006D1C7F1C28780028F5D13846BDE8F88F81
:10131000002315F8011F18462E2915D115F8011FB5
:1013200004232A290DD06FF02F022978A1F130046F
:10133000092C09D800EB800002EB400008446D1C2A
:10134000F3E758F8040B6D1C2A78002ADDD0632AD5
:1013500007D0732A0FD0104651464A4690477F1C4B
:101360002AE018F8042B8DF8002000218DF80110D8
:101370006E46012103E058F8046B4FF0FF315A0725
:101380004FF0000401D409E0641C84420BDA8C4263
:10139000FADB325D002AF7D105E0641C8C42FCDBED
:1013A000305D0028F9D1274404E016F8010B5146BE
:1013B0004A469047641EF8D26D1CA3E70A68531C86
:1013C0000B601070704710B5044600F081F82007DC
:1013D000000E00F07DF8BDE810400120FEF7B6BE1B
:1013E00010B5044600224FF480510448FEF798FFE0
:1013F0002046BDE81040FFF7E6BF0000000C0140AA
:1014000029B1012905D1C030C0B2FFF7E9BF803052
:10141000FAE7704710B500F0ADF82B4C00224FF4FE
:1014200080512046FEF77CFF002261142046FEF723
:1014300077FF00224FF480412046FEF771FF234CD6
:10144000002210212046FEF76BFF002220212046BB
:10145000FEF766FF002240212046FEF761FF0022D2
:1014600080212046FEF75CFF0F20FEF76FFE302044
:1014700000F02EF80520FEF769FE302000F028F875
:101480000120FEF763FE302000F022F80120FEF775
:101490005DFE202000F01CF86420FEF757FE282097
:1014A000FFF79EFF0C20FFF79BFF0620FFF798FF3A
:1014B0000120FFF795FF0220FFF792FFBDE81040E3
:1014C0006420FEF743BE0000000C0140000801400C
:1014D00070B5264E044600224FF400513046FEF708
:1014E0001FFF234D002210212846FEF719FF200977
:1014F000C00704D0012210212846FEF711FF002268
:1015000020212846FEF70CFF6009C00704D0012205
:1015100020212846FEF704FF002240212846FEF73E
:10152000FFFEA009C00704D0012240212846FEF793
:10153000F7FE002280212846FEF7F2FEE00904D0E3
:10154000012280212846FEF7EBFE0122940321466A
:101550003046FEF7E5FE0120FEF7F8FD2146304655
:10156000BDE870400022FEF7DBBE0000000C014029
:10157000000801407FB54FF480500124CDE90004FC
:101580001C4E0325694603953046FEF7EBFD6003CC
:10159000CDE90004694603953046FEF7E3FDA0035C
:1015A000CDE90004694603953046FEF7DBFD1020C7
:1015B000CDE90004104E694603953046FEF7D2FD92
:1015C0002020CDE90004694603953046FEF7CAFDA8
:1015D0004020CDE90004694603953046FEF7C2FD80
:1015E0008020CDE90004694603953046FEF7BAFD38
:1015F0007FBD0000000C01400008014010B504460A
:10160000012211030348FEF78BFE2046BDE810407F
:10161000FFF7D9BE000C014010B5044603E000BF3F
:10162000FFF7ECFF641C20780028F9D110BD000002
:1016300008B5FEF789FEFFF79CFC3148816941F04F
:1016400020018161816901F020010091816941F0EF
:1016500004018161816901F004010091816941F017
:1016600008018161816901F008010091816941F0FF
:10167000100181618069234900F010000090224828
:101680000C2201604FF41651416000218160C1605D
:10169000C0E904128161C161FFF789FB00B1FEE777
:1016A000FFF7B8FE194C4FF4FA6500210846FFF722
:1016B000A7FE154816A1A430FFF7F2FD1248A4308A
:1016C000FFF7AAFF20784FF0010101284FF000003A
:1016D0000FD0FFF795FE10A211A10B48A430FFF721
:1016E000DFFD0948A430FFF797FF2846FEF72EFDDF
:1016F000DBE7FFF785FE044A0CA14032EDE700006E
:1017000000100240004400400C00002008000020AF
:1017100048656C6C6F00000048756E670000000043
:101720004B5420676F633A20257300004E68616E4A
:101730003A202573000000000000000000000000B7
:101740000102030406070809000000000102030467
:1017500070170008000000200C000000C8120008EC
:101760007C1700080C000020BC040000D812000800
:0C17700000A24A0400000000000000007D
:04000005080000ED02
:00000001FF
